:100000000C9434000C949C000C949C000C949C0068
:100010000C949C000C949C000C949C000C949C00F0
:100020000C949C000C949C000C949C000C949C00E0
:100030000C949C000C949C000C949C000C949C00D0
:100040000C949C000C949C000C949C000C949C00C0
:100050000C949C000C949C000C949C000C949C00B0
:100060000C949C000C949C0011241FBECFEFD8E090
:10007000DEBFCDBF0E9440000C943E00F894FFCF3D
:1000800017B88FEF88B98AB91BB8C4EFD1E0F12C4B
:1000900000E0EE24E394D12C18E0329907C08FE3FE
:1000A0009CE90197F1F700C000000E2D339907C0BD
:1000B0008FE39CE90197F1F700C00000FE2C329B12
:1000C00011C0013079F48FE39CE90197F1F700C08A
:1000D0000000E296C83E93E0D907B4F0C8EED3E042
:1000E0000D2D15C0339B13C081E0F81210C08FE3B3
:1000F0009CE90197F1F700C00000E2971C161D066D
:100100002CF01BB9FD2C03C00D2D01C0FD2C1BB91B
:10011000CE010E9490001BB8CE010E949000BDCF7E
:100120001816190644F4EFE9FFE03197F1F700C023
:0801300000000197C1F70895DA
:040138000C94000023
:00000001FF
