:100000000C943A000C94F6000C94F6000C94F60054
:100010000C94B6000C94F6000C94F6000C94F600C8
:100020000C94F6000C94F6000C94F6000C94F60078
:100030000C94F6000C94F6000C94F6000C94F60068
:100040000C94F6000C94F6000C94F6000C94F60058
:100050000C94F6000C94F6000C94F6000C94F60048
:100060000C94F6000C94F600010001120001F0015E
:100070001201148011241FBECFEFD8E0DEBFCDBF28
:10008000E8E6F0E040E017C0B591A59135912591E3
:10009000059107FD0CC095918591EF01F92FE82F8F
:1000A00005900D92A217B307D9F7FE0104C01D9267
:1000B000A217B307E1F7E437F40731F70E946400B1
:0800C0000C946200F894FFCFDC
:1000C800CF93DF93CDB7DEB760970FB6F894DEBF56
:1000D8000FBECDBF80E1E0E0F1E0DE0111960190B6
:1000E8000D928A95E1F781E084B985B917B88FEF49
:1000F80088B98AB91BB883E0809368008CE0809344
:100108006C00789428C0E0911201F091130181E00D
:1001180090E08C0F9D1FE80FF91F80818BB99FEF2E
:1001280029E688E1915020408040E1F700C00000B6
:10013800809112019091130101969093130180937D
:1001480012018091120190911301409721F41092AD
:100158001301109212018091100190911101892BC5
:0401680091F6F9CF44
:10016C001F920F920FB60F9211248F939F93329977
:10017C0018C08091100190911101892B39F481E004
:10018C0090E090931101809310011DC0809110019B
:10019C00909111010197B9F4109211011092100174
:1001AC0012C0339910C08091100190911101892BCC
:1001BC0051F4109213011092120181E090E090938F
:1001CC001101809310018FE39CE90197F1F700C0B6
:1001DC0000009F918F910F900FBE0F901F9018955C
:0401EC000C9400006F
:1001F000E784D3D6B47677C4F7F6F537639773718F
:020200000100FB
:00000001FF
