:100000000C942E000C9447000C9447000C9447006D
:100010000C9447000C9447000C9447000C94470044
:100020000C9447000C9447000C9447000C94470034
:100030000C9447000C9447000C9447000C94470024
:100040000C9447000C9447000C9447000C94470014
:100050000C9447000C9447000C94470011241FBED9
:10006000CFEFD8E0DEBFCDBF0E943A000C9438003D
:04007000F894FFCF32
:1000740017B88CE088B98FEF8AB9329902C05F9AB9
:0A008400FCCF3399FACF5F98F8CF54
:04008E000C940000CE
:00000001FF
