:100000000C9434000C9484000C9484000C948400B0
:100010000C9484000C9484000C9484000C94840050
:100020000C9484000C9484000C9484000C94840040
:100030000C9484000C9484000C9484000C94840030
:100040000C9484000C9484000C9484000C94840020
:100050000C9484000C9484000C9484000C94840010
:100060000C9484000C94840011241FBECFEFD8E0C0
:10007000DEBFCDBF0E9440000C943E00F894FFCF3D
:1000800087E08AB90E947D0080E00E946900EC014F
:1000900081E00E9469002FEF34E34CE021503040B2
:1000A0004040E1F700C000008C179D0720F4589AEB
:1000B00059985A98E9CFC817D90720F4599A5898EF
:1000C0005A98E2CFC817D907F9F65A9A589859980A
:0200D000DBCF84
:1000D200ECE7F0E09081907F8F70892B8083EAE7D4
:1000E200F0E0808180648083808186FDFDCF8091F5
:0800F200780090917900089557
:0E00FA0080E480937C0087E880937A0008956C
:040108000C94000053
:00000001FF
