:100000000C9438000C94C6040C94C6040C94C604DA
:100010000C94C6040C94C6040C94C6040C94C60438
:100020000C94C6040C94C6040C94C6040C94C60428
:100030000C94C6040C94C6040C94C6040C94C60418
:100040000C94C6040C94C6040C94C6040C94C60408
:100050000C94C6040C94C6040C94C6040C94C604F8
:100060000C94C6040C94C604010001200009900001
:1000700011241FBECFEFD8E0DEBFCDBFE8E6F0E031
:1000800040E017C0B591A59135912591059107FDE7
:100090000CC095918591EF01F92FE82F05900D92F5
:1000A000A217B307D9F7FE0104C01D92A217B30728
:1000B000E1F7EF36F40731F70E94EE020C9460008E
:0400C000F894FFCFE2
:0500C400252E3464004C
:1000CA002F923F924F926F927F928F929F92AF920E
:1000DA00BF92CF92DF92EF92FF920F931F93CF932B
:1000EA00DF93CDB7DEB762970FB6F894DEBF0FBEC7
:1000FA00CDBF6C013A01862E7901FC011086178268
:10010A00848181FFE7C19E012F5F3F4F3D872C8786
:10011A00C901A0E8888B998BAA8B9FE3992EF301DA
:10012A00849187FC8081882309F4D0C1482D9301EA
:10013A002F5F3F4F4F4F853219F03901842E0AC085
:10014A00F901849147FD808192E0690E711C811C3E
:10015A00853229F4B60190E00E94B103E0CFB12CB8
:10016A0000E010E01032A0F48B3269F030F48032F3
:10017A0059F0833269F410612CC08D3239F0803322
:10018A0039F4116026C01260146023C0186021C0BF
:10019A0017FD29C090ED980F9A3078F416FF06C023
:1001AA00AAE0BA9E900D1124B92E13C0EAE00E9F60
:1001BA00900D1124092F10620CC08E3221F416FD05
:1001CA0085C1106406C08C3611F4106802C08836E6
:1001DA0051F4F301849187FC8081FFEF6F1A7F0A43
:1001EA008F0A8111BFCF982F9F7D9554933028F4A1
:1001FA0024E0E20EF11C99820FC0833631F0833776
:10020A0091F0833509F063C027C0F70180818983A3
:10021A0097012E5F3F4F7901288839884A88AA2496
:10022A00A394B12C17C0A7014D5F5F4F5F874E871C
:10023A00F70120803180428016FF03C04B2D50E029
:10024A0002C04FEF5FEF842DB1010E9465045C018B
:10025A00EE84FF841F7718C097012D5F3F4F3F87B9
:10026A002E87F70120803180428016FF03C04B2D74
:10027A0050E002C04FEF5FEF842DB1010E94650488
:10028A005C011068EE84FF8413FD1DC0802F90E08E
:10029A00A816B906C0F4B60180E290E00E94B10344
:1002AA000150F4CFF101849147FC8081FFEF2F1AAE
:1002BA003F0A4F0AB60190E00E94B10301110150B2
:1002CA0021E0A21AB108A114B10461F7F5C084367D
:1002DA0011F0893671F5F70117FF08C06081718145
:1002EA008281938197012C5F3F4F09C060817181A0
:1002FA00072E000C880B990B97012E5F3F4F79014F
:10030A001F76312E97FF0AC090958095709561955A
:10031A007F4F8F4F9F4F312F3068332E2AE030E0C6
:10032A00AE014F5F5F4F0E945303482E4C85441A1B
:10033A004AC0853729F41F7EA12E2AE030E025C065
:10034A00512F597FA52E8F36C1F018F4883579F0D0
:10035A00BDC0803719F0883721F0B8C0852F806179
:10036A00A82EA4FE0DC09A2D9460A92E09C014FFD0
:10037A000AC0A52FA660AA2E06C028E030E005C054
:10038A0020E130E002C020E132E0F701A7FE08C018
:10039A006081718182819381A7014C5F5F4F07C0A1
:1003AA006081718180E090E0A7014E5F5F4F7A0122
:1003BA00AE014F5F5F4F0E945303482E5C85451A7A
:1003CA008A2D8F77382E36FE0DC0932D9E7FA92E4B
:1003DA004B1458F434FE0BC032FC09C0A32DAE7E78
:1003EA00AA2E05C0142DA32C03C0142D01C01B2D49
:1003FA00A4FE0EC0FE01E40DF11D8081803321F4BC
:10040A00EA2DE97EAE2E08C0A2FE05C01E5F04C01A
:10041A008A2D867809F01F5FA3FC11C0A0FE06C0D2
:10042A00101788F4040DB02EB11A0EC0101760F41C
:10043A00B60180E290E00E94B1031F5FF7CF101768
:10044A0018F4011B02C0B42C00E0A4FE10C0B601CF
:10045A0080E390E00E94B103A2FE17C0A1FC03C092
:10046A0088E790E002C088E590E0B6010CC08A2DCA
:10047A00867859F0A1FE02C08BE201C080E2A7FC97
:10048A008DE2B60190E00E94B1034B1438F4B60134
:10049A0080E390E00E94B103BA94F7CF4A94E1E076
:1004AA00F0E0EC0FFD1FE40DF11D8081B60190E034
:1004BA000E94B1034110F2CF002309F430CEB601F5
:1004CA0080E290E00E94B1030150F6CFF6018781E5
:1004DA00908502C08FEF9FEF62960FB6F894DEBF49
:1004EA000FBECDBFDF91CF911F910F91FF90EF907B
:1004FA00DF90CF90BF90AF909F908F907F906F903A
:08050A004F903F902F900895DF
:100512002D982B988FE39CE90197F1F700C000001A
:100522008BB18F7080638BB995E09A95F1F70000DB
:100532002B9A85E08A95F1F700002B9890EF9A9517
:10054200F1F78FE19EE40197F1F700C0000095E01A
:100552009A95F1F700002B9A85E08A95F1F7000051
:100562002B9890EF9A95F1F78FE193E00197F1F7CD
:1005720000C0000095E09A95F1F700002B9A85E003
:100582008A95F1F700002B9890EF9A95F1F78BB1CD
:100592008F7080628BB985E08A95F1F700002B9A03
:1005A20095E09A95F1F700002B9880EF8A95F1F784
:1005B20060E088E20E94ED0360E088E00E94ED03C3
:1005C20060E081E00E94ED0360E08CE00E94ED03B8
:0A05D20060E080E80E94ED03089548
:1005DC008FEF8AB988E284B90E94BF040E94890215
:1005EC008BE091E00E94AF0460E080EC0E94ED0390
:1005FC0080E091E00E94AF040F2EF4ECCF2EF0E0DF
:10060C00DF2EF0E0EF2EF02D0BE111E0C6E1D1E092
:10061C0080E00E949B04A82E992E81E00E949B04EE
:10062C00F82EB92E2FEF84E39CE0215080409040AF
:10063C00E1F700C000009F92AF92EF92DF92CF9251
:10064C001F930F930E94260460E08AE80E94ED033A
:10065C00C8010E94AF042FEF81EE94E0215080403E
:10066C009040E1F700C00000BF92FF92EF92DF9242
:10067C00CF92DF93CF930E94260460E08AEC0E9415
:10068C00ED03CE010E94AF048DB79EB70E960FB648
:0A069C00F8949EBF0FBE8DBFBBCFC8
:1006A600FA01AA27283051F1203181F1E8946F939D
:1006B6006E7F6E5F7F4F8F4F9F4FAF4FB1E03ED043
:1006C600B4E03CD0670F781F891F9A1FA11D680FE1
:1006D600791F8A1F911DA11D6A0F711D811D911D14
:1006E600A11D20D009F468943F912AE0269F112489
:1006F6003019305D3193DEF6CF010895462F4770ED
:10070600405D4193B3E00FD0C9F7F6CF462F4F7047
:10071600405D4A3318F0495D31FD4052419302D0A5
:10072600A9F7EACFB4E0A69597958795779567954B
:10073600BA95C9F700976105710508959B01AC014B
:100746000A2E06945795479537952795BA95C9F772
:0C075600620F731F841F951FA01D0895E3
:100762000F931F93CF93DF93FB01248121FD03C0DD
:100772008FEF9FEF2CC022FF16C047815085258145
:1007820036814217530744F4A081B1819D012F5F46
:100792003F4F318320838C93278130852F5F3F4FDA
:1007A2003087278314C08B01EC01FB010184F285A1
:1007B200E02D0995892BE1F6D80117968D919C9130
:1007C2001897019618969C938E931797CE01DF91F6
:0807D200CF911F910F910895D2
:1007DA00611102C02D9801C02D9A9BB19F70282FDC
:1007EA00207F922B9BB945E04A95F1F700002B9A9E
:1007FA0095E09A95F1F700002B9840EF4A95F1F7AA
:10080A002BB1922F9F7040E1849F90011124292BD4
:10081A002BB995E09A95F1F700002B9A45E04A9595
:10082A00F1F700002B9890EF9A95F1F7611108C043
:10083A00843030F48FE39FE10197F1F700C00000A4
:02084A0008950F
:10084C00AFE0B0E0ECE2F4E00C9457040E891F89A1
:10085C0086E08D831A8309838FEF9FE79F838E83B6
:10086C009E01255E3F4F488D598D6A8DCE010196B4
:10087C000E946500E885F985E00FF11F10822F9624
:06088C00E4E00C948E0470
:100892002F923F924F925F926F927F928F929F928E
:1008A200AF92BF92CF92DF92EF92FF920F931F937C
:1008B200CF93DF93CDB7DEB7CA1BDB0B0FB6F8942D
:0808C200DEBF0FBECDBF09949B
:1008CA00CF92DF92EF926B01E82EA82FCB01411550
:1008DA00510531F48C199D09EF90DF90CF9008955E
:1008EA00FC012491A7FD20812223A1F30196A11DD9
:0608FA0041505109ECCF52
:100900002A88398848885F846E847D848C849B849F
:10091000AA84B984C884DF80EE80FD800C811B81AD
:10092000AA81B981CE0FD11D0FB6F894DEBF0FBEDC
:06093000CDBFED010895AA
:10093600ECE7F0E09081907F8F70892B8083EAE767
:10094600F0E0808180648083808186FDFDCF809188
:080956007800909179000895EA
:10095E00CF93DF93EC018881882339F0219661E0F3
:10096E000E94ED0389918111FACFDF91CF91089505
:0E097E0080E480937C0087E880937A000895DF
:04098C000C940000C7
:0B09900043414E414C2031203D20002F
:0B099B0043414E414C2030203D200025
:0509A60020000000002C
:0509AB00200000000027
:00000001FF
