:100000000C9438000C94CE000C94CE000C94CE00CE
:100010000C94CE000C94CE000C94CE000C94CE0028
:100020000C94CE000C94CE000C94CE000C94CE0018
:100030000C94CE000C94CE000C94CE000C94CE0008
:100040000C94CE000C94CE000C94CE000C94CE00F8
:100050000C94CE000C94CE000C94CE000C94CE00E8
:100060000C94CE000C94CE00010001100001A00001
:1000700011241FBECFEFD8E0DEBFCDBFE8E6F0E031
:1000800040E017C0B591A59135912591059107FDE7
:100090000CC095918591EF01F92FE82F05900D92F5
:1000A000A217B307D9F7FE0104C01D92A217B30728
:1000B000E1F7EF36F40731F70E9462000C9460001C
:0400C000F894FFCFE2
:1000C400CF93DF93CDB7DEB760970FB6F894DEBF5A
:1000D4000FBECDBF80E1E0E0F1E0DE0111960190BA
:1000E4000D928A95E1F717B88CE088B98FEF8AB939
:1000F40089818BB9209A289A20E030E090E080E052
:1001040041E050E0B0E0A0E07FE060E0329907C059
:10011400EFE3FCE93197F1F700C00000842F339935
:1001240007C0EFE3FCE93197F1F700C00000942F1A
:10013400329B19C08130B9F4EFE3FCE93197F1F750
:1001440000C000002F5F3F4F2031310514F0272FEE
:10015400362FE1E0F0E0EC0FFD1FE20FF31F80818A
:100164008BB9852FD3CF339BD1CF913079F6EFE381
:10017400FCE93197F1F700C000002150310912F475
:100184002B2F3A2FE1E0F0E0EC0FFD1FE20FF31FFD
:0801940090819BB9952FBACFB1
:04019C000C940000BF
:1001A000E784D3D6B47677C4F7F6F53763977371DF
:00000001FF
