:100000000C9434000C947F000C947F000C947F00BF
:100010000C947F000C947F000C947F000C947F0064
:100020000C947F000C947F000C947F000C947F0054
:100030000C947F000C947F000C947F000C947F0044
:100040000C947F000C947F000C947F000C947F0034
:100050000C947F000C947F000C947F000C947F0024
:100060000C947F000C947F0011241FBECFEFD8E0CA
:10007000DEBFCDBF0E9440000C943E00F894FFCF3D
:1000800017B88FEF88B98AB91BB820E080E050E23A
:1000900030E091E048E0339908C0EFE3FCE93197A4
:1000A000F1F700C00000892FF6CF339B0DC08130DF
:1000B00059F4EFE3FCE93197F1F700C000008BB190
:1000C00084278BB9832FE7CF329908C0EFE3FCE98F
:1000D0003197F1F700C00000292FDDCF339BDBCF34
:1000E000329BD9CF2130B9F6EFE3FCE93197F1F734
:0E00F00000C000002BB125272BB9232FCCCF49
:0400FE000C9400005E
:00000001FF
