:100000000C9434000C946A000C946A000C94400028
:100010000C946A000C946A000C946A000C946A00B8
:100020000C946A000C946A000C946A000C946A00A8
:100030000C946A000C946A000C946A000C946A0098
:100040000C946A000C946A000C946A000C946A0088
:100050000C946A000C946A000C946A000C946A0078
:100060000C946A000C946A0011241FBECFEFD8E0F4
:10007000DEBFCDBF0E945E000C943E00F894FFCF1F
:100080001F920F920FB60F9211248F939F931C997A
:1000900006C01A9B04C08BB180588BB908C01A994E
:1000A00006C01C9B04C09BB180E289278BB99F913D
:0C00B0008F910F900FBE0F901F901895BD
:1000BC008FEF8AB91BB814B881E08093680084E193
:0800CC0080936B007894FFCFD4
:0400D4000C94000088
:00000001FF
