:100000000C9437000C94A8000C94A8000C94A80041
:100010000C94A8000C94A8000C94A8000C94A800C0
:100020000C94A8000C94A8000C94A8000C94A800B0
:100030000C94A8000C94A8000C94A8000C94A800A0
:100040000C9461000C94A8000C94A8000C94A800D7
:100050000C94A8000C94A8000C94A8000C94A80080
:100060000C94A8000C94A800010001048000112445
:100070001FBECFEFD8E0DEBFCDBFE8E6F0E040E046
:1000800017C0B591A59135912591059107FD0CC03B
:1000900095918591EF01F92FE82F05900D92A21708
:1000A000B307D9F7FE0104C01D92A217B307E1F709
:1000B000ED36F40731F70E9497000C945F00F89436
:0200C000FFCF70
:1000C2001F920F920FB60F9211242F933F938F938B
:1000D2009F9380E886BD8091020190910301019671
:1000E2009093030180930201809102019091030198
:1000F2008A3F910531F41092030110920201599A3C
:100102000CC0209102013091030180910001909175
:1001120001012817390709F459989F918F913F914E
:0C0122002F910F900FBE0F901F901895AA
:10012E008FEF8AB981E08BB985BD80936E0080E830
:10013E0086BD789485E090E0909301018093000154
:02014E00FFCFE1
:040150000C9400000B
:00000001FF
