:100000000C9434000C945B000C945B000C945B002B
:100010000C945B000C945B000C945B000C945B00F4
:100020000C945B000C945B000C945B000C945B00E4
:100030000C945B000C945B000C945B000C945B00D4
:100040000C945B000C945B000C945B000C945B00C4
:100050000C945B000C945B000C945B000C945B00B4
:100060000C945B000C945B0011241FBECFEFD8E012
:10007000DEBFCDBF0E9440000C943E00F894FFCF3D
:1000800080E480937C0087E880937A008FEF8AB9C0
:10009000EAE7F0E0A8E7B0E08081806480838081B7
:1000A00086FDFDCF8D919C9111979695879596959C
:0600B00087958BB9F1CF2A
:0400B6000C940000A6
:00000001FF
