:100000000C9438000C94A2000C94A2000C94A20052
:100010000C94A2000C94A2000C94A2000C94A200D8
:100020000C94A2000C94A2000C94A2000C94A200C8
:100030000C94A2000C94A2000C94A2000C94A200B8
:100040000C94A2000C94A2000C94A2000C94A200A8
:100050000C94A2000C94A2000C94A2000C94A20098
:100060000C94A2000C94A2000100011000014800B1
:1000700011241FBECFEFD8E0DEBFCDBFE8E6F0E031
:1000800040E017C0B591A59135912591059107FDE7
:100090000CC095918591EF01F92FE82F05900D92F5
:1000A000A217B307D9F7FE0104C01D92A217B30728
:1000B000E1F7EF36F40731F70E9462000C9460001C
:0400C000F894FFCFE2
:1000C400CF93DF93CDB7DEB760970FB6F894DEBF5A
:1000D4000FBECDBF80E1E0E0F1E0DE0111960190BA
:1000E4000D928A95E1F782E084B981E085B917B869
:1000F4008FEF88B98AB91BB820E030E080E040E097
:1001040091E0339908C0EFE3FCE93197F1F700C0BF
:100114000000892FF6CF339BF4CF813091F72F5F06
:100124003F4F2B30310514F020E030E0E1E0F0E007
:10013400EC0FFD1FE20FF31F80818BB9842FE1CFF9
:040144000C94000017
:10014800E784D3D6B47677C4F7F6F5376397737137
:00000001FF
