:100000000C9434000C9487000C9487000C948700A7
:100010000C9487000C9487000C9487000C94870044
:100020000C9487000C9487000C9487000C94870034
:100030000C9487000C945E000C9487000C9487004D
:100040000C9487000C9487000C9487000C94870014
:100050000C9487000C9487000C9487000C94870004
:100060000C9487000C94870011241FBECFEFD8E0BA
:10007000DEBFCDBFE8E6F0E040E017C0B591A59146
:1000800035912591059107FD0CC095918591EF0162
:10009000F92FE82F05900D92A217B307D9F7FE01AB
:1000A00004C01D92A217B307E1F7E836F40731F751
:0C00B0000E9476000C945C00F894FFCFD6
:1000BC001F920F920FB60F9211248F939F9381EF83
:1000CC0095E890938500809384009BB180E4892708
:1000DC008BB99F918F910F900FBE0F901F90189519
:1000EC008FEF8AB91BB885E08093810081E0809303
:1000FC006F0081EF95E8909385008093840078944D
:02010C00FFCF23
:04010E000C9400004D
:00000001FF
