:100000000C943A000C94EC000C94EC000C94D70087
:100010000C9464000C94EC000C94EC000C94EC0038
:100020000C94EC000C94EC000C94EC000C94EC00A0
:100030000C94EC000C94EC000C94EC000C94EC0090
:100040000C94EC000C94EC000C94EC000C94EC0080
:100050000C94EC000C94EC000C94EC000C94EC0070
:100060000C94EC000C94EC00010001100001DC0188
:100070001001128011241FBECFEFD8E0DEBFCDBF2C
:10008000E8E6F0E040E017C0B591A59135912591E3
:10009000059107FD0CC095918591EF01F92FE82F8F
:1000A00005900D92A217B307D9F7FE0104C01D9267
:1000B000A217B307E1F7E437F40731F70E94A50070
:0800C0000C946200F894FFCFDC
:1000C8001F920F920FB60F9211248F939F9332991C
:1000D80014C0809110019091110101969093110123
:1000E8008093100180911001909111014097E1F4E3
:1000F800109211011092100117C0339915C0809108
:1001080010019091110101979093110180931001B2
:100118008091100190911101992334F48FE090E0BF
:1001280090931101809310018FE39CE90197F1F7F7
:1001380000C000009F918F910F900FBE0F901F90ED
:02014800189508
:10014A00CF93DF93CDB7DEB760970FB6F894DEBFD3
:10015A000FBECDBF80E1E0E0F1E0DE011196019033
:10016A000D928A95E1F793E094B981E085B917B8C1
:10017A008CE088B92FEF2AB91BB89093680090E1F8
:10018A0090936B0080936C007894E0911001F09149
:10019A00110181E090E08C0F9D1FE80FF91F80810B
:0401AA008BB9F3CF4B
:1001AE001F920F920FB60F9211248F931C9B03C0B8
:1001BE0081E085B904C01C9902C082E085B98F9197
:0A01CE000F900FBE0F901F901895C0
:0401D8000C94000083
:1001DC00E784D3D6B47677C4F7F6F53763977371A3
:00000001FF
