:100000000C9434000C9459000C9459000C94590031
:100010000C9459000C9459000C9459000C945900FC
:100020000C9459000C9459000C9459000C945900EC
:100030000C9459000C9459000C9459000C945900DC
:100040000C9459000C9459000C9459000C945900CC
:100050000C9459000C9459000C9459000C945900BC
:100060000C9459000C94590011241FBECFEFD8E016
:10007000DEBFCDBF0E9440000C943E00F894FFCF3D
:100080008FEF8AB99AEA85E59BB92FE936E841E016
:10009000215030404040E1F700C000008BB92FE90B
:1000A00036E841E0215030404040E1F700C0000018
:0200B000EBCF94
:0400B2000C940000AA
:00000001FF
