:100000000C9437000C94C3000C94C3000C94C300F0
:100010000C94C3000C94C3000C94C3000C94C30054
:100020000C94C3000C94C3000C94C3000C94C30044
:100030000C94C3000C94AB000C94C3000C94C3004C
:100040000C9461000C94C3000C94C3000C94C30086
:100050000C94C3000C94C3000C94C3000C94C30014
:100060000C94C3000C94C300010001028000112411
:100070001FBECFEFD8E0DEBFCDBFE8E6F0E040E046
:1000800017C0B591A59135912591059107FD0CC03B
:1000900095918591EF01F92FE82F05900D92A21708
:1000A000B307D9F7FE0104C01D92A217B307E1F709
:1000B000ED36F40731F70E948A000C945F00F89443
:0200C000FFCF70
:1000C2001F920F920FB60F9211248F939F938091DC
:1000D200000190910101019690930101809300012A
:1000E20080910001909101010A9741F49BB184E053
:1000F20089278BB910920101109200019BB184E013
:1001020089278BB99F918F910F900FBE0F901F90EF
:0201120018953E
:100114008FEF8AB91BB895E095BD81E080936E009E
:100124009093810080936F0087EF92EC9093850009
:1001340080938400789490E18BB189278BB92FEF59
:1001440039E688E1215030408040E1F700C00000EA
:02015400F3CFE7
:100156001F920F920FB60F9211248F939F9387EFE2
:1001660092EC90938500809384009BB180E489276C
:100176008BB99F918F910F900FBE0F901F9018957E
:040186000C940000D5
:00000001FF
