:100000000C943A000C94E7040C94E7040C94E70475
:100010000C94E7040C94E7040C94E7040C94E704B4
:100020000C94E7040C94E7040C94E7040C94E704A4
:100030000C94E7040C94A0030C94E7040C94E704DC
:100040000C94E7040C94E7040C94E7040C94E70484
:100050000C94E7040C94E7040C94E7040C94E70474
:100060000C94E7040C94E7040100010A0009D20192
:100070000A01108011241FBECFEFD8E0DEBFCDBF34
:10008000E8E6F0E040E017C0B591A59135912591E3
:10009000059107FD0CC095918591EF01F92FE82F8F
:1000A00005900D92A217B307D9F7FE0104C01D9267
:1000B000A217B307E1F7E437F40731F70E945103C1
:0800C0000C946200F894FFCFDC
:0C00C8002532643A2532643A2532640087
:1000D4002F923F924F926F927F928F929F92AF9204
:1000E400BF92CF92DF92EF92FF920F931F93CF9321
:1000F400DF93CDB7DEB762970FB6F894DEBF0FBEBD
:10010400CDBF6C013A01862E7901FC01108617825D
:10011400848181FFE7C19E012F5F3F4F3D872C877C
:10012400C901A0E8888B998BAA8B9FE3992EF301D0
:10013400849187FC8081882309F4D0C1482D9301E0
:100144002F5F3F4F4F4F853219F03901842E0AC07B
:10015400F901849147FD808192E0690E711C811C34
:10016400853229F4B60190E00E94ED03E0CFB12C72
:1001740000E010E01032A0F48B3269F030F48032E9
:1001840059F0833269F410612CC08D3239F0803318
:1001940039F4116026C01260146023C0186021C0B5
:1001A40017FD29C090ED980F9A3078F416FF06C019
:1001B400AAE0BA9E900D1124B92E13C0EAE00E9F56
:1001C400900D1124092F10620CC08E3221F416FDFB
:1001D40085C1106406C08C3611F4106802C08836DC
:1001E40051F4F301849187FC8081FFEF6F1A7F0A39
:1001F4008F0A8111BFCF982F9F7D9554933028F497
:1002040024E0E20EF11C99820FC0833631F083376B
:1002140091F0833509F063C027C0F7018081898399
:1002240097012E5F3F4F7901288839884A88AA248C
:10023400A394B12C17C0A7014D5F5F4F5F874E8712
:10024400F70120803180428016FF03C04B2D50E01F
:1002540002C04FEF5FEF842DB1010E94A1045C0145
:10026400EE84FF841F7718C097012D5F3F4F3F87AF
:100274002E87F70120803180428016FF03C04B2D6A
:1002840050E002C04FEF5FEF842DB1010E94A10442
:100294005C011068EE84FF8413FD1DC0802F90E084
:1002A400A816B906C0F4B60180E290E00E94ED03FE
:1002B4000150F4CFF101849147FC8081FFEF2F1AA4
:1002C4003F0A4F0AB60190E00E94ED03011101506C
:1002D40021E0A21AB108A114B10461F7F5C0843673
:1002E40011F0893671F5F70117FF08C0608171813B
:1002F4008281938197012C5F3F4F09C06081718196
:10030400072E000C880B990B97012E5F3F4F790144
:100314001F76312E97FF0AC0909580957095619550
:100324007F4F8F4F9F4F312F3068332E2AE030E0BC
:10033400AE014F5F5F4F0E94F302482E4C85441A72
:100344004AC0853729F41F7EA12E2AE030E025C05B
:10035400512F597FA52E8F36C1F018F4883579F0C6
:10036400BDC0803719F0883721F0B8C0852F80616F
:10037400A82EA4FE0DC09A2D9460A92E09C014FFC6
:100384000AC0A52FA660AA2E06C028E030E005C04A
:1003940020E130E002C020E132E0F701A7FE08C00E
:1003A4006081718182819381A7014C5F5F4F07C097
:1003B4006081718180E090E0A7014E5F5F4F7A0118
:1003C400AE014F5F5F4F0E94F302482E5C85451AD1
:1003D4008A2D8F77382E36FE0DC0932D9E7FA92E41
:1003E4004B1458F434FE0BC032FC09C0A32DAE7E6E
:1003F400AA2E05C0142DA32C03C0142D01C01B2D3F
:10040400A4FE0EC0FE01E40DF11D8081803321F4B1
:10041400EA2DE97EAE2E08C0A2FE05C01E5F04C010
:100424008A2D867809F01F5FA3FC11C0A0FE06C0C8
:10043400101788F4040DB02EB11A0EC0101760F412
:10044400B60180E290E00E94ED031F5FF7CF101722
:1004540018F4011B02C0B42C00E0A4FE10C0B601C5
:1004640080E390E00E94ED03A2FE17C0A1FC03C04C
:1004740088E790E002C088E590E0B6010CC08A2DC0
:10048400867859F0A1FE02C08BE201C080E2A7FC8D
:100494008DE2B60190E00E94ED034B1438F4B601EE
:1004A40080E390E00E94ED03BA94F7CF4A94E1E030
:1004B400F0E0EC0FFD1FE40DF11D8081B60190E02A
:1004C4000E94ED034110F2CF002309F430CEB601AF
:1004D40080E290E00E94ED030150F6CFF60187819F
:1004E400908502C08FEF9FEF62960FB6F894DEBF3F
:1004F4000FBECDBFDF91CF911F910F91FF90EF9071
:10050400DF90CF90BF90AF909F908F907F906F902F
:080514004F903F902F900895D5
:10051C002D982B988FE39CE90197F1F700C0000010
:10052C008BB18F7080638BB995E09A95F1F70000D1
:10053C002B9A85E08A95F1F700002B9890EF9A950D
:10054C00F1F78FE19EE40197F1F700C0000095E010
:10055C009A95F1F700002B9A85E08A95F1F7000047
:10056C002B9890EF9A95F1F78FE193E00197F1F7C3
:10057C0000C0000095E09A95F1F700002B9A85E0F9
:10058C008A95F1F700002B9890EF9A95F1F78BB1C3
:10059C008F7080628BB985E08A95F1F700002B9AF9
:1005AC0095E09A95F1F700002B9880EF8A95F1F77A
:1005BC0060E088E20E94290460E088E00E9429043F
:1005CC0060E081E00E94290460E08CE00E94290434
:0A05DC0060E080E80E942904089501
:1005E600FA01AA27283051F1203181F1E8946F935E
:1005F6006E7F6E5F7F4F8F4F9F4FAF4FB1E03ED004
:10060600B4E03CD0670F781F891F9A1FA11D680FA1
:10061600791F8A1F911DA11D6A0F711D811D911DD4
:10062600A11D20D009F468943F912AE0269F112449
:100636003019305D3193DEF6CF010895462F4770AD
:10064600405D4193B3E00FD0C9F7F6CF462F4F7008
:10065600405D4A3318F0495D31FD4052419302D066
:10066600A9F7EACFB4E0A69597958795779567950C
:10067600BA95C9F700976105710508959B01AC010C
:100686000A2E06945795479537952795BA95C9F733
:0C069600620F731F841F951FA01D0895A4
:1006A2008FEF8AB988E284B985E08093810081E086
:1006B20080936F0087EF92EC909385008093840083
:1006C20078940E948E020F2EF8ECCF2EF0E0DF2EEF
:1006D200F0E0EF2EF02DC0E0D1E02FEF81EE94E0BC
:1006E200215080409040E1F700C0000040910E018F
:1006F20050910F0120910C0130910D0180910A015E
:1007020090910B015F934F933F932F939F938F93FE
:10071200EF92DF92CF92DF93CF930E94620460E068
:1007220080EC0E942904CE010E94D7048DB79EB7A7
:0E0732000B960FB6F8949EBF0FBE8DBFCECFB4
:100740001F920F920FB60F9211248F939F9387EFF2
:1007500092EC909385008093840080910E0190919B
:100760000F01019690930F0180930E0180910E016D
:1007700090910F01CC9769F480910C0190910D013B
:10078000019690930D0180930C0110920F0110922D
:100790000E0180910C0190910D01CC9769F410929B
:1007A0000D0110920C0180910A0190910B010196AC
:1007B00090930B0180930A0180910A0190910B01A3
:1007C000CC9721F410920B0110920A019F918F9106
:0A07D0000F900FBE0F901F901895B8
:1007DA000F931F93CF93DF93FB01248121FD03C065
:1007EA008FEF9FEF2CC022FF16C0478150852581CD
:1007FA0036814217530744F4A081B1819D012F5FCE
:10080A003F4F318320838C93278130852F5F3F4F61
:10081A003087278314C08B01EC01FB010184F28528
:10082A00E02D0995892BE1F6D80117968D919C91B7
:10083A001897019618969C938E931797CE01DF917D
:08084A00CF911F910F91089559
:10085200611102C02D9801C02D9A9BB19F70282F63
:10086200207F922B9BB945E04A95F1F700002B9A25
:1008720095E09A95F1F700002B9840EF4A95F1F731
:100882002BB1922F9F7040E1849F90011124292B5C
:100892002BB995E09A95F1F700002B9A45E04A951D
:1008A200F1F700002B9890EF9A95F1F7611108C0CB
:1008B200843030F48FE39FE10197F1F700C000002C
:0208C200089597
:1008C400AFE0B0E0E8E6F4E00C9493040E891F89ED
:1008D40086E08D831A8309838FEF9FE79F838E833E
:1008E4009E01255E3F4F488D598D6A8DCE0101963C
:1008F4000E946A00E885F985E00FF11F10822F96A7
:06090400E4E00C94CA04BB
:10090A002F923F924F925F926F927F928F929F9215
:10091A00AF92BF92CF92DF92EF92FF920F931F9303
:10092A00CF93DF93CDB7DEB7CA1BDB0B0FB6F894B4
:08093A00DEBF0FBECDBF099422
:10094200CF92DF92EF926B01E82EA82FCB014115D7
:10095200510531F48C199D09EF90DF90CF900895E5
:10096200FC012491A7FD20812223A1F30196A11D60
:0609720041505109ECCFD9
:100978002A88398848885F846E847D848C849B8427
:10098800AA84B984C884DF80EE80FD800C811B8135
:10099800AA81B981CE0FD11D0FB6F894DEBF0FBE64
:0609A800CDBFED01089532
:1009AE00CF93DF93EC018881882339F0219661E0A3
:1009BE000E94290489918111FACFDF91CF91089578
:0409CE000C94000085
:0A09D20020202020202020202020DB
:00000001FF
