:100000000C9434000C946B000C946B000C946B00FB
:100010000C946B000C946B000C946B000C946B00B4
:100020000C946B000C946B000C946B000C946B00A4
:100030000C946B000C946B000C946B000C946B0094
:100040000C946B000C946B000C946B000C946B0084
:100050000C946B000C946B000C946B000C946B0074
:100060000C946B000C946B0011241FBECFEFD8E0F2
:10007000DEBFCDBF0E9440000C943E00F894FFCF3D
:1000800017B88FEF88B98AB91BB880E038E020E054
:1000900044E091E0339908C0EFE3FCE93197F1F7D0
:1000A00000C00000892FF6CF339BF4CF813091F749
:1000B000329907C0EFE3FCE93197F1F700C0000087
:1000C00005C0329B03C08BB184278BB98BB18327CA
:0600D0008BB9822FDFCF87
:0400D6000C94000086
:00000001FF
