:100000000C9434000C947A000C947A000C946E00DA
:100010000C945E000C947A000C947A000C947A0094
:100020000C947A000C947A000C947A000C947A0068
:100030000C947A000C947A000C947A000C947A0058
:100040000C947A000C947A000C947A000C947A0048
:100050000C947A000C947A000C947A000C947A0038
:100060000C947A000C947A0011241FBECFEFD8E0D4
:10007000DEBFCDBF0E9440000C943E00F894FFCF3D
:100080008FEF8AB91BB817B88CE088B914B893E021
:100090009093680094E190936B0080936C00789447
:1000A00098E08BB189278BB92FEF33EC89E0215091
:0C00B00030408040E1F700C00000F3CFBA
:1000BC001F920F920FB60F921124329902C05D9AC3
:1000CC0002C0339B5D980F900FBE0F901F90189538
:1000DC001F920F920FB60F9211241A9B5F9A0F90DA
:0800EC000FBE0F901F90189544
:0400F4000C94000068
:00000001FF
